:020000040800F2
:10000000A0070020150300081F300008252F000856
:100010001D3000085B1D0008DB34000800000000F4
:100020000000000000000000000000002330000875
:100030005D1D000800000000213000082530000888
:100040002F0300082F0300082F0300082F030008C8
:100050002F0300082F0300082F0300082F030008B8
:100060002F0300082F0300082F0300082F030008A8
:100070002F0300082F0300082F0300082F03000898
:100080002F0300082F0300082F0300082F03000888
:100090002F0300082F0300082F0300082F03000878
:1000A0002F0300082F0300082F0300082F03000868
:1000B0002F0300082F0300082F0300082F03000858
:1000C0002F0300082F0300082F0300082F03000848
:1000D0002F0300082F0300082F0300082F03000838
:1000E0002F0300082F0300082F0300082F03000828
:1000F0002F0300082F0300082F0300082F03000818
:100100002F0300082F0300082F0300082F03000807
:100110002F0300082F0300082F0300082F030008F7
:100120002F0300082F0300082F0300082F030008E7
:100130002F0300082F0300082F0300082F030008D7
:100140002F0300082F0300082F0300082F030008C7
:100150002F0300082F0300082F0300082F030008B7
:100160002F0300082F0300082F0300082F030008A7
:100170002F0300082F0300082F03000800000000D1
:100180002F0300082F0300082F0300082F03000887
:100190002F0300082F0300082F0300082F03000877
:1001A0002F0300082F0300082F0300082F03000867
:1001B0002F0300082F0300082F0300082F03000857
:1001C0002F0300082F03000800F002F800F092F857
:1001D0000AA090E8000C82448344AAF10107DA45A2
:1001E00001D100F087F8AFF2090EBAE80F0013F062
:1001F000010F18BFFB1A43F0010318473036000007
:1002000050360000103A24BF78C878C1FAD8520797
:1002100024BF30C830C144BF04680C607047000080
:100220000023002400250026103A28BF78C1FBD8FF
:10023000520728BF30C148BF0B6070476E2900F0DD
:100240000B82702900F04D83662903F060826529D6
:1002500003F05D82672903F05A82612903F0598215
:1002600003681B0A28BF41F08001692900F0B881AA
:10027000642900F0B581752900F0B2816F2900F082
:10028000DA82782900F01983E92900F07582E429DF
:1002900000F07282F52900F06F82EF2900F0D7821A
:1002A000F82900F018830368DB0928BF41F08001BA
:1002B000632901F01B80732901F02080E32901F0FC
:1002C0002B80F32901F03080002070471FB503F028
:1002D00019FA01F07BF804000020002103F0FCF97A
:1002E000401C60600020002103F0E0F9E0601FBDC9
:1002F00010B510BD01F03CF81146FFF7E7FF03F021
:1003000071F901F019F903B4FFF7F2FF03BC01F032
:1003100055F900000948804709480047FEE7FEE715
:10032000FEE7FEE7FEE7FEE7FEE7FEE7FEE7FEE7A5
:1003300004480549054A064B70470000C9300008CB
:10034000C9010008A0010020A0070020A003002090
:10035000A003002053EA020C00F069802DE9F04B65
:100360004FF00006002B1FBFB3FA83F503FA05F424
:1003700024FA05F65E4012BF1643B2FA82F502FA7D
:1003800005F4C5F120051EBF22FA05FC44EA0C0461
:10039000203556EA044C4FEA144418BF641C4FF051
:1003A00000084FF00009904271EB030C39D300298B
:1003B00019BFB1FA81F701FA07F6B0FA80F700FA2F
:1003C00007F6C7F120071EBF20FA07FC46EA0C0615
:1003D0002037B6FBF4FCA7EB0507103F07F01F0B17
:1003E000CBF120060CFA0BFB2CFA06F644BFB34601
:1003F0000026202FA4BF5E464FF0000B5BEA060CE0
:1004000008BF4FF0010B19EB0B09ABFB027C48EB6B
:100410000608C01B06FB02CC0BFB03CC71EB0C01E6
:10042000C1E70B46024641464846BDE8F08B13B58E
:100430004FF000004FF00001AFF30080BDE81C401A
:10044000704700000FB41CB5084B06AA7B446946F0
:100450000090059800F019F904460020694600F064
:1004600027F920461CBC5DF814FB00006102000067
:1004700010B5431C02E010F8011B71B18107FAD1DD
:100480004FF0013202C88C1A8C4314EAC211F9D021
:10049000C01A0A0603D0C01E10BDC01A10BD0A043F
:1004A00001D0801E10BD0902FCD0401E10BD421EAE
:1004B00012F8013F002BFBD111F8013B002B02F891
:1004C000013BF9D170474FF0000200B51346944646
:1004D0009646203922BFA0E80C50A0E80C50B1F19C
:1004E0002001BFF4F7AF090728BFA0E80C5048BFB0
:1004F0000CC05DF804EB890028BF40F8042B08BF4E
:10050000704748BF20F8022B11F0804F18BF00F849
:10051000012B704770477047704770B50446856976
:100520000068C10601D5302600E02026C00707D0AC
:1005300070BDD4E9012130469047206A401C2062FA
:100540006D1EF6D570BD70B5044685690078C0078C
:1005500007D170BDD4E9012120209047206A401CBA
:1005600020626D1EF6D570BD09684A0501D540B2FE
:100570007047C905FCD500B2704709684A0501D526
:10058000C0B27047C905FCD580B2704770B50C4643
:100590000546012A05D02878800600D5EA6900239F
:1005A00002E0012305E05B1C934202D2E05C0028DC
:1005B000F9D1A869E618C01AA861286A1844286207
:1005C0002846FFF7AAFF04E0D5E9012114F8010B42
:1005D0009047B442F8D32846FFF7B5FF70BD00003E
:1005E0002DE9F0410646002410687529314616A50C
:1005F00010D0FFF7B9FF002802DA404213A507E048
:1006000031688A0701D512A502E0490704D511A572
:10061000012401E0FFF7B1FF00210A2206F12407BF
:1006200009E0B0FBF2FCB0FBF2F302FB1C0030303F
:1006300078541846491C0028F3D123462A463046F0
:10064000BDE8F04100F061BA000000002D0000009C
:100650002B0000002000000011680268006A5305AA
:1006600001D508700AE0D30501D5088006E013061D
:1006700003D5C217C1E9000200E0086001207047FD
:1006800001694A1C02610878704700B58FB0CDE956
:1006900001310021059105497944CDE90310114646
:1006A000684600F029F90FB000BD0000E5FFFFFF2C
:1006B0000A6802F8010B0A60704700002DE9FF5F2D
:1006C00015468A460446DFF8AC80F8440027D8E98E
:1006D00000103E46CDE9001010E03AF816106A46C8
:1006E00002A800F025FE411C07D02178890603D519
:1006F000E269391891420DD80744761C20788006AB
:1007000002D5E069B84205DDAE42E6DB3AF81600F4
:100710000028E2D1A069C01BA0612046FFF7FDFEC2
:10072000D8E90010CDE90010002017E03AF81810C1
:100730006A4602A800F0FCFDB0F1FF3F81460BD0F5
:1007400000250DF1080B05E0D4E901211BF8050097
:1007500090476D1C4D45F7D308F10100B04280462B
:10076000E4DB206A384420622046FFF7ECFEBDE857
:10077000FF9F0000623000002DE9F0418046D21D4D
:1007800022F007020025D2E90002F52915A614D0AF
:10079000011E72F1000106DA0023D0EB030063EBC7
:1007A000020211A608E0D8F800108B0701D50FA6A9
:1007B00002E0490701D50EA601251146002408F1E3
:1007C000240704E000F05CF930323A55641C50EA2A
:1007D0000102F7D12B46324621464046BDE8F041A2
:1007E00000F093B9000000002D0000002B00000075
:1007F0002000000030B4002100F1240408E002F0E1
:100800000705D208303542EA4372DB086554491CBB
:1008100052EA0305F3D10468002310A2250707D587
:10082000A40600D421B1C46901230DA2641EC461D1
:1008300030BC00F06AB910B5044621461068FFF7D5
:100840009CFE02462046BDE810400023D2E7D21DA0
:1008500022F00701D1E90023CCE7000000000000EE
:1008600030000000F0B40D460188090502D5214C86
:100870007C4402E01F4C7C440E34002100F124062D
:1008800008E002F00F071209E75D42EA03721B0954
:100890007754491C52EA0307F3D102780023120768
:1008A00004D5702D06D009B1022311342246F0BCC4
:1008B00000F02BB901231034F8E770B504460D465B
:1008C00021461068FFF759FE024629462046BDE83A
:1008D00070400023C6E7D21D22F00703D3E90023AE
:1008E000C0E70368126843F0200303600823C36174
:1008F0000023B7E7C42E00002DE9F05F89460446C7
:100900004FF0000ADFF874B1FB44C0F820A0204685
:10091000E1688847002874D0252806D0D4E9012151
:100920009047206A401C2062F1E700265F4620467F
:10093000E16888472028054607DB312D05D2781964
:1009400010F8200C08B10643F1E7B00701D526F0F6
:100950000406C4F81CA00027C4F818A02A2D09D04A
:10096000284602F0E4FD38B304EB8708303DC8F8B0
:10097000185019E059F8041B204604EB87029161D6
:10098000E1688847012F054618D1E069002820DA80
:1009900026F020061DE0D8F8180000EB800005EBDB
:1009A00040003038C8F818002046E16888470546FE
:1009B00002F0BDFD0028EED1012F0AD02E2D08D166
:1009C0002046E16888477F1C0546022F46F0200636
:1009D000C4DBA069002803DA404246F00106A061AA
:1009E000F00701D026F010066C2D0BD0682D09D031
:1009F0004C2D39D06A2D35D0742D35D07A2D33D089
:100A000016E038E0E1682F4620468847B8420546A0
:100A100009D16C2F26D04FF48060E1680643204650
:100A20008847054604E06C2F1AD04FF480700643C7
:100A30000DB3A5F14100192802D8203546F400660F
:100A40004A462946204626604E46FFF7F7FB80B10E
:100A500001280BD0F61D26F0070000F1080956E723
:100A60004020E4E78020D8E70020D6E706F104091B
:100A70004DE7284652E7206ABDE8F09F542E00005B
:100A800030B5B0F10A024FEA900E71F100034EEA60
:100A9000817EB0EB0E0061EB91014FEA101E4EEA31
:100AA000017E10EB0E0041EB11114FEA102E4EEAC1
:100AB000016E10EB0E0041EB11214FEA104E4EEA91
:100AC000014E10EB0E0041EB1141401841F10001C5
:100AD0004FEAD00040EA41704FEAD10110EB8005A7
:100AE0004FEA810444EA907444EB01046D1944EB2D
:100AF0000404521BA3414FF0000348BF0A3200D543
:100B000030BD401C41F1000130BD2DE9F0470D46DC
:100B100099469246044600F124080168880604D5E7
:100B2000E06921F01001216000E00120A84201DD10
:100B3000471B00E00027A1697A1902EB0900081A97
:100B4000A0612078C00602D42046FFF7E6FC00260C
:100B500008E0D4E901211AF806009047206A401CF9
:100B6000761C20624E45F4DB2078C0060AD520466C
:100B7000FFF7D3FC06E0D4E9012130209047206A3A
:100B8000401C2062381EA7F10107F4DC07E0D4E91D
:100B9000012118F805009047206A401C2062281E99
:100BA000A5F10105F3DC2046FFF7CDFC2078000617
:100BB00002D50220BDE8F0870120FBE770472DE950
:100BC000FF4F0C461E464FF0FF378BB0D2E90001B5
:100BD000DDF860800A908A46C1F30A5505B93D46A2
:100BE000002108464FF00000BAF1000F00F4400069
:100BF00005DA00EB80004FF4400101EA50004FEAB3
:100C00009059B9F1010F00DDB9460A9850EA4A003F
:100C10000ED044F61050A5F2FF3545432F14B8F11D
:100C2000000F1ED07542291E1EDDC9F100021CE016
:100C3000B8F1010F4FF0000001D0302103E0F24382
:100C400005E02154401CB042FBDB3046002200216D
:100C500021540B99C1F80880C1E900200FB0BDE80C
:100C6000F08FBD1B6D1CDEE74A4600DA694206A81C
:100C700000F0F0FB06AB93E8070003AB83E8070046
:100C800050460A9900F0A1FC8DE80700A0F500503D
:100C90001F3800900398002D0ADD42F21F014A46DA
:100CA0000844002303A90390684600F00AFF09E006
:100CB000A0F500504A461F38002303A90390684658
:100CC00000F014FF8DE807000004000C03D04FF083
:100CD000FF30410800E01046B8F1000F03D00022B9
:100CE000009215461EE0751E05D4FFF7C9FE30328E
:100CF00062556D1EF9D5B3460122084302D0002289
:100D00007F1C04E02078302801D100227F1E002AB9
:100D1000099784D01DE0112D07DAFFF7B1FE3032BC
:100D200062556D1C50EA0102F5D1084302D00098CB
:100D3000C8B10EE00021681E05E0235C625C6354CC
:100D40002254401E491C8142F7DBAB46A81B401EC3
:100D50000990002004F80B000B98099AC0F808804D
:100D6000C0E9002B7AE711264FF0000857E72DE97C
:100D7000F04F88460446D21D22F0070191B0D1E918
:100D80000001CDE90A0102F0A9FB02460B98C00F51
:100D900001D02D2007E02068810701D52B2002E03B
:100DA000202101EAC000032A099001D0072A05DBAF
:100DB00003464146204600F00DFB0BE120788006FB
:100DC00001D5E06900E00620B8F1650F814606D044
:100DD000B8F1660F18D0B8F1670F70D131E000207C
:100DE000B9F1110F009001DB112301E009F10103BA
:100DF0000AAA01A90CA8FFF7E2FEDDE90C700026A3
:100E000009F10105834647E001204B4600904FF071
:100E100000470AAA01A90CA8FFF7D1FEDDE90DB031
:100E20000C995D46002610B909F101000D18B9EBC7
:100E3000050003D4C0F1FF3609F10105A5EB090057
:100E40002BE0B9F1010F01DA4FF001090020B9F1EF
:100E5000110F0090484601DD112300E003460AAA65
:100E600001A90CA8FFF7ABFEDDE90C704D4600268A
:100E70008346207800070AD4AB4500DA5D4601A816
:100E8000012D04DD411911F8011C302907D04F450F
:100E900002DA17F1040F04DA012082460FE06D1E1A
:100EA000EEE7002F02DCED1B3E4403E0781CA84275
:100EB00000DD7D1CB81B00F1010A4FF000472078CF
:100EC000000703D4AA4501DB4FF0FF3A0021B7F138
:100ED000004F0DF143088DF8431024D002202B233E
:100EE000002F01DA7F422D230A21021EA0F101000A
:100EF00000DC5FB197FBF1FC97FBF1F201FB1C7C7E
:100F000017460CF1300C08F801CDEEE7A8F101000E
:100F100003702188090501D5452100E06521A0F174
:100F2000010800F8011C09980FA9A1EB0807FF1D93
:100F300000B10120411901EBEA70A1693844081A97
:100F4000401EA0612078C00602D42046FFF7E5FAD3
:100F5000099828B1D4E901219047206A401C2062F9
:100F60002078C00622D52046FFF7D7FA1EE0002ED3
:100F700004DBB34502DD01A8805D00E03020D4E948
:100F800001219047206A401C2062761CAAF10100D2
:100F90005FEA000A0AD100F019FAC0680168405CF3
:100FA000D4E901219047206A401C2062281EA5F147
:100FB0000105DCDC07E0D4E9012118F8010B9047BA
:100FC000206A401C2062381EA7F10107F3DC20468E
:100FD000FFF7B9FA032011B041E600002DE9F04F08
:100FE00004460D46D21D22F0070089B0D0E90097D3
:100FF0004846394602F072FA0246F80F01D02D2316
:1010000007E02068810701D52B2302E0202101EAB7
:10101000C0038DF820300BB1012000E00020032A2E
:10102000824601D0072A04DB2946204600F0D2F987
:101030003FE12078800601D40D2500E0E569C7F383
:101040000A560D2D49DA00214FEA175B08464FF08A
:101050000000002F00F4400007DA00EB80004FF49E
:10106000400100EBD07001EA60008115012901DD2B
:101070004FF0FF3100224FEA850CBCF1180F06D368
:101080001346ACF118004FF08052C24003E04FF419
:10109000801323FA0CF30CF10C0CBCF1200F04D3D9
:1010A000ACF1200C09FA0CF001E007FA0CF0002971
:1010B0004FF0004801DD18B90FE00ED140450CD3C8
:1010C00019EB02095F4121B9404502D19F4329EA4A
:1010D0000209BBEB175F00D0761C2088000502D503
:1010E0007B48784402E07A487844193808AA3023CB
:1010F00002F80A30037C0AF10101002E0AF1020A0B
:1011000053546A4602DC4FF0300101E04FF03101E8
:101110004FF001088DF8001002D0A6F2FF3603E070
:1011200059EA470100D06B4E002D02DC21780907F7
:1011300004D54FF002082E218DF80110C44600217D
:101140000BE0C7F303433F01C35C491C6D1E02F86B
:101150000830052908F1010801DA002DF1DC002131
:101160000CE000EB1973491C1B786D1E082902F86E
:1011700008304FEA091908F1010801DA002DF0DC06
:1011800021688B0602D516E0A8F10108E04505DDCF
:1011900002EB080313F8013C302BF5D0B8F1000F37
:1011A00009DD02EB080313F8013C2E2B03D10907DC
:1011B00001D4A8F10108002D05DD3E2102F8081038
:1011C0006D1E08F10108407C002E02F8080008F1AD
:1011D000010804DA2D20764202F8080002E02B20F4
:1011E00002F808000A214FF47A70864208F10108DB
:1011F0000BDB96FBF0F3303302F8083096FBF0F38C
:1012000008F1010800FB136601E0642E0CDB64208A
:1012100096FBF0F3303302F8083096FBF0F308F158
:10122000010800FB136601E00A2E06DB96FBF1F0D5
:10123000303002F8080008F1010896FBF1F001FBDC
:101240001060303002F80800A16908F1010808EBCD
:10125000050202EB0A00081AA0612078C00602D439
:101260002046FFF75AF9216A08AE01EB0A00206216
:1012700004E0D4E9012116F8010B9047BAF1010A04
:10128000F7D22078C00602D52046FFF746F96E4611
:1012900009E016F8010B3E280FD0D4E90121904750
:1012A000206A401C2062B8F10108F2D22046FFF704
:1012B0004AF909B00320BDE8F08F206A2844206273
:1012C00003E0D4E90121302090476D1EEBD3F8E70D
:1012D0009E26000002FCFFFF10B5436913B1AFF377
:1012E000008001E0FFF752F9012010BD127800F1F3
:1012F00024010A7000224A700122EDE711684FF0C4
:10130000FF32E9E710B5436913B1AFF3008001E0A4
:10131000FFF7D4F9012010BD128800F12401828466
:101320000022C2840122EDE711684FF0FF32E9E7A5
:1013300070B516460C46054600F040F8036893F871
:101340000101012806D0FF2C0FD8185D68B10120DB
:101350002C7070BDD3F807013246214603F2071303
:1013600003442846BDE8704018474FF0FF3070BD79
:10137000754600F0EBF8AE4605006946534620F08E
:101380000700854618B020B5FEF7D2FFBDE8204023
:101390004FF000064FF000074FF000084FF0000B31
:1013A00021F00701AC46ACE8C009ACE8C009ACE8E4
:1013B000C009ACE8C0098D467047000010B500F0C8
:1013C00005F8001D10BD00BF112300000048704744
:1013D0005C0100202DE9F0411F4604460326016808
:1013E000072A01F4006004DB08B116A505E016A584
:1013F00003E008B115A500E015A521F0100020605C
:10140000A069C01EA0610FB1401EA0612046FFF779
:1014100084F84FB1D4E9012138469047206A401C36
:101420002062C01C206206E0206AFAE7D4E90121AC
:1014300015F8010B9047761EF8D22046FFF783F887
:10144000BDE8F0814E414E006E616E00494E46008F
:10145000696E66002DE9F047814616468AB0354828
:1014600078440DC88DE80D0032487844801C03ACE8
:101470000DC884E80D0041F69B300844372190FBED
:10148000F1F290FBF1F5A5F1800501FB12041B3C84
:1014900002D56442012000E00020DFF898A08046D9
:1014A0000027FA44AAF1BE0A0EE0E0070AD032464D
:1014B000684607EB470101230AEB810100F016FBA8
:1014C0008DE8070064107F1C002CEED1194F7F447B
:1014D000AE3F19E0E80715D007EB04100DF1180A2C
:1014E00090E80E008AE80E00C068F04201D1981919
:1014F00008903246012306A903A800F0F7FA03ABCF
:1015000083E807006D10641C002DE3D14FF0010348
:1015100032466946B8F1000F03A802D000F0D1FAB4
:1015200001E000F0E3FAC9E90001C9F808200AB0B7
:10153000BDE8F087B023000010B50446AFF300808B
:101540002046BDE81040FEF7DEBE000000487047B0
:101550003C0100204FF0013C50F8042B51F8043BB3
:101560009A4215D1A2EB0C03934313EACC130BD18F
:1015700050F8042B51F8043B9A4209D1A2EB0C031A
:10158000934313EACC13E7D04FF00000704700BF3D
:10159000D01A01BAB1FA81F101F0180122FA01F072
:1015A000CB40C1F12001DBB2C0B2C01A2CFA01F36A
:1015B000D11A914311EAC311E6D1704701491820AD
:1015C000ABBEFEE72600020070475FEA400C08BF92
:1015D00091F0000F4FEA8C234FEAC12243EA5151A8
:1015E0004FEA1C5018BF00F5F0404FEA300018BF1A
:1015F00041F000415FEA6C5C00F02980BCF1FF3FE4
:1016000008BF40F080407047130C06BF12044FF033
:10161000100C4FF0000C130E04BF12020CF1080C5A
:10162000130F04BF12010CF1040C930F04BF9200BE
:101630000CF1020CD30F04BF52000CF1010C114647
:101640004FF00002A0F11F00A0EB0C00704711F05A
:10165000004F08BF704731F000413FF4D5AF0B0C8D
:1016600006BF09044FF0100C4FF0000C0B0E04BF26
:1016700009020CF1080C0B0F04BF09010CF1040C5A
:101680008B0F04BF89000CF1020CCB0F04BF490083
:101690000CF1010CCCF12003A0EB0C0022FA03F3B7
:1016A00002FA0CF241EA030100F10100704720F058
:1016B0007F4C80EA030023F07F47ACEB070303F580
:1016C0007C5300F0004003F1FF032DE980494FEA0D
:1016D000154B09B44FEA144325EA0B4E24EA03489C
:1016E0000FF2042606EB132749083E785FEA320220
:1016F00003FB0667C7F5000707FB06F64FEA5437FA
:101700004FEAD64606F1020607FB066CCCF1005CF8
:101710004FEA1C472CEA074C07FB06F40CFB06F5C6
:1017200004EB15464FEA961634BF00204FF00040F8
:101730004FEAD13706FB07FC4FEA1C4C0CFB0BF7BA
:10174000D21B03FB0CF761EB07010CFB0EF7B0EBB0
:10175000074072EB17420CFB08F734BFA2EB0742BD
:10176000B2EB074261EB17414FEA0C444FEA910795
:1017700006FB07FC4FEA1C4C0CFB0BF7B0EBC74019
:1017800072EB573203FB0CF734BFA2EBC742B2EB4C
:10179000C74261EB57310CFB0EF7B0EBC70072EBA1
:1017A00057720CFB08F734BFA2EBC702B2EBC702BB
:1017B00061EB5771039F4FEA816141EA921104EB9B
:1017C000CC044FEAD1374FEA826206FB07FC42EABB
:1017D00090124FEA80604FEA1C4C0CFB0BF7D21BB7
:1017E00003FB0CF761EB07010CFB0EF7B0EB0740B6
:1017F00072EB17420CFB08F734BFA2EB0742B2EBC7
:10180000074261EB17414FEA8C554FEA910704EB11
:101810009C2406FB07FC4FEA1C4C0CFB0BF7B0EBBF
:10182000C74072EB573203FB0CF734BFA2EBC74241
:10183000B2EBC74261EB57310CFB0EF7B0EBC700C0
:1018400072EB57720CFB08F734BFA2EBC702B2EB86
:10185000C70261EB577115EB4C254FEA816141EAF4
:1018600092114FEA82624FEAD13742EA901206FBA8
:1018700007FC44F100044FEA80604FEA1C4C0CFB6B
:101880000BF7D21B03FB0CF761EB07010CFB0EF708
:10189000B0EB074072EB17420CFB08F734BFA2EB2A
:1018A0000742B2EB074261EB174115EB1C154FEAFB
:1018B000813141EA92414FEA823242EA90424FEA54
:1018C00080304FEA0C7644F1000448EA03434EEAC4
:1018D0000B484FF0000EB2EB080C71EB030724BF6E
:1018E000624639464EEB0E0E4FF0000B0018524187
:1018F00049414BEB0B0BB2EB080C71EB03077BF18F
:10190000000B24BF624639464EEB0E0E4FF0000B23
:101910000018524149414BEB0B0BB2EB080C71EB39
:1019200003077BF1000B24BF624639464EEB0E0ED7
:1019300051EA020718BF46F0010616EB0E7655F184
:10194000000254F1000103D5BDE88901BDE800881B
:10195000BDE88901BDE80048B619524141EB0101DB
:10196000A3F10103704780807F7E7D7C7B7A79784C
:10197000777676757473727171706F6E6E6D6C6C54
:101980006B6A6A69686867666665646463636261F6
:101990006160605F5F5E5E5D5D5C5C5B5B5A5A5977
:1019A00059585857575656555555545453535252E3
:1019B0005251515050504F4F4F4E4E4D4D4D4C4C3B
:1019C0004C4B4B4B4A4A4A49494948484847474784
:1019D00047464646454545444444444343434342C1
:1019E000424242414141002B9C4630D477002BD0EB
:1019F0001CB54FEA370703B44FF010004FF0100149
:101A0000BAF1000F06D0BCF1000FDCBF40F00800B7
:101A100040F008014FF000000FBCBDE810400BF192
:101A2000010BBBF1010F08BF5FEA170722BF12F1DC
:101A3000010211F101014FF0004143F1000300F0F8
:101A4000004043EA00007047F9D35708D0E746EA60
:101A5000064613F1400F4FEA16461FDD13F1200F23
:101A6000DFBF16430A46002120335B42BED0C3F1DC
:101A7000200746EA064602FA07F74FEA164646EA04
:101A80000706C3F1200722FA03F201FA07F721FA49
:101A900003F14FF0000342EA0702A7E746EA020615
:101AA00046EA06464FEA164646EA0106BCBF46EA43
:101AB0000646360C4FF000034FF000024FF00001D5
:101AC00094E72DE9804C9A46934670B491E838002B
:101AD00007C831EA400C48BF34EA430C03D5FFF78E
:101AE000E6FDFFF780FFF0BCBDE8008C2DE9804CDF
:101AF0009A46934670B491E8380007C810F0804FBA
:101B000008BF13F0804F03D100F005F8FFF76BFF1B
:101B1000F0BCBDE8008C20F07F4780EA030023F092
:101B20007F4C07EB0C03A3F57C5300F00040A3F1BE
:101B3000FE0392F0000F00F0B38095F0000F00F06C
:101B400077802DE901494FEA11404FEA144621EA16
:101B5000004800FB06FC24EA064708FB06F607FBE4
:101B600008F800FB07F718EB06484CEB164C4FEA59
:101B7000124B18EB07484FEA15464CEB174022EA88
:101B80000B4E0BFB06FC25EA06470EFB06F607FB91
:101B90000EFE0BFB07F71EEB064E4CEB164C4FF000
:101BA00000061EEB074E4CEB174B18EB0B0840F1F1
:101BB000000018EB0E0B58EB000840F100008F1AE4
:101BC0004FF000013CBFC943661B14BFB5EB040CCA
:101BD00000213CBFC943F61B4FEA17444EEA8E0E64
:101BE00027EA04454FEA1C4704FB07622CEA074C2E
:101BF00005FB07F70CFB05F604FB0CFC16EB074690
:101C000042EB174216EB0C4642EB1C421BEB06065E
:101C100058EB0202414146EA9E0601D5BDE8018922
:101C2000B619524141EB0101A3F10103BDE801895D
:101C30004FEA14454FEA114724EA054621EA074CCA
:101C400005FB07F406FB07F70CFB06F105FB0CFC94
:101C500011EB074144EB17444FEA124711EB0C41DB
:101C600044EB1C4422EA074C05FB07F206FB07F78E
:101C70000CFB06F605FB0CFC16EB074642EB174285
:101C800016EB0C4642EB1C456A1854F1000148BFA4
:101C90007047B619524141EB0101A3F101037047AE
:101CA00095F0000F37D04FEA11424FEA144721EA6E
:101CB000024624EA074C02FB07F106FB07F70CFB80
:101CC00006F402FB0CFC14EB074441EB17414FEA0E
:101CD000154714EB0C4441EB1C4125EA074C02FB71
:101CE00007F506FB07F70CFB06F602FB0CFC16EBF0
:101CF000074645EB174516EB0C4645EB1C421219FF
:101D000051F1000148BF7047B619524141EB010142
:101D1000A3F1010370474FEA14454FEA114724EA43
:101D2000054621EA074C05FB07F106FB07F70CFB0C
:101D300006F24FF0000605FB0CFC12EB074241EBEC
:101D4000174112EB0C4251EB1C4148BF70479218EF
:101D500041EB0101A3F101037047FEE7704772B642
:101D6000FEE7F0B50126044600201E2301E05B1EBD
:101D700005D303F01F0706FA07F50D42F7D072B13D
:101D8000082A0AD0102A05D0182A01D1072B06D319
:101D90000120F0BD082BFBD201E0102BF8D2236804
:101DA000596121688B6823F0180313438B60F0BDE1
:101DB00010B5040010D0607F20B9002020772046A5
:101DC00000F032F821790220607739B1D4E90212AB
:101DD0002046FFF7C6FF48B1012010BD2168114819
:101DE00048612068816821F0180181606079A0B1A4
:101DF000216820690861012220686369816821F0F7
:101E00006001194381602068A369816821F0800125
:101E1000194381606277002010BD21684FF0FF30C8
:101E2000E8E70000B71DC10408B50068064988420C
:101E300008D10648016841F480510160006800F44F
:101E40008050009008BD0000003002403038024051
:101E50002DE9F84FDFF80CB2012403254FF00F0AEB
:101E600000220BF1040E00BF0B6804FA02F63340A7
:101E7000B34278D10F7907F00307012F01D0022F69
:101E80001AD187684FEA4209D1F80CC005FA09F85F
:101E900027EA08070CFA09FC4CEA070CC0F808C04E
:101EA000476891F804C0B743CCF3001C0CFA02FC5D
:101EB0004CEA070CC0F804C00E79F643B6070BD005
:101EC000C6684FEA420C8F6805FA0CF826EA080645
:101ED00007FA0CF73743C7600E7906F00306022EA7
:101EE00012D1D6084FEA427800EB860600960F69B9
:101EF000D6F820904FEAD8660AFA06FCB74029EADD
:101F00000C063743009E37620F7906684FEA420C91
:101F100007F0030705FA0CF807FA0CF726EA08069B
:101F2000374307604E6816F4403F1CD04E4E37686A
:101F300047F480473760366822F00308970706F4B5
:101F400080460096494E3F0F4644B146D6F8086891
:101F5000DFF81C810AFA07FC404526EA0C0603D18B
:101F60004FF0000C41E076E0DFF808C1604502D197
:101F70004FF0010C39E0DFF800C1604502D14FF0AD
:101F8000020C32E0DFF8F4C0604502D14FF0030CE0
:101F90002BE0DFF8ECC0604502D14FF0040C24E0E8
:101FA000DFF8E0C0604502D14FF0050C1DE0DFF81E
:101FB000D8C0604502D14FF0060C16E0DFF8CCC067
:101FC000604502D14FF0070C0FE0DFF8C4C0604558
:101FD00002D14FF0080C08E0DFF8B8C0604502D12C
:101FE0004FF0090C01E04FF00A0C0CFA07FC4CEA28
:101FF000060CC9F808C84F68DBF80060FF0226EA43
:10200000030600D51E437746CBF80060D1F804C024
:10201000DEF800605FEA8C2C26EA030600D51E433A
:10202000DFF840C03E60ACF1040C4F68DCF80060A3
:10203000BF0326EA030600D51E430A4FCCF8006012
:10204000083FD1F804C03E685FEACC3C26EA0306AC
:1020500000D51E433E60521C102AFFF405AFBDE8B8
:10206000F88F0000083C0140443802400030014035
:10207000000002400004024000080240000C024040
:10208000001002400014024000180240001C0240F0
:1020900000200240002402400069084000D00120D6
:1020A00070470AB1816170470904FBE70148806805
:1020B0007047000000000020024881680278114447
:1020C0008160704700000020032010B500F0AEF8DA
:1020D0000F2000F005F800F071F8002010BD00009E
:1020E00070B50D4D04464FF47A700C4A2978126889
:1020F000B0FBF1F0B2FBF0F000F00AFE48B9102C92
:1021000007D200222146501E00F070F800206C60BB
:1021100070BD012070BD0000000000200C000020F8
:10212000F0B5154C4378211D0A1D23600378F3B1E7
:1021300043680B60057BC67A817A437B2D07847BDD
:1021400045EA0665C77B90F809C0067A90F800E07A
:1021500045EAC14040EA834040EA444040EA074043
:1021600040EA0C2040EA460040EA0E0001E0002070
:1021700008601060F0BD000098ED00E0BFF35F8FD5
:10218000044800210368034A23F48033036070325B
:102190001160704724ED00E0074A40F00100064955
:1021A00070321060086840F480300860BFF34F8FD1
:1021B000BFF36F8F7047000024ED00E00A4808B5B8
:1021C000016841F080510160006800F0805000908B
:1021D0000548001D016841F480410160006800F479
:1021E0008040009008BD0000403802400E4BF0B423
:1021F0001B680D46C3F30223C3F10706042E00D962
:102200000426191D072901D2002300E0DB1E01244A
:1022100004FA06F19C40491E2940641E994014406E
:102220002143F0BC01F072B90CED00E0064900F06A
:10223000070210B54FF6FF040868044B204040EA3F
:1022400002201843086010BD0CED00E00000FA0504
:102250001848F8B5016841F0805101600068164CDB
:1022600000F080500090206840F480302060FFF73C
:102270001DFF4FF47A76054605E000BFFFF716FF15
:10228000401BB0420FD86068C003F7D5206840F407
:1022900000302060FFF70AFF054606E0FFF706FF63
:1022A000401BB04201D90320F8BD60688003F5D51A
:1022B0000020F8BD40380240007000402DE9F84F82
:1022C00004460078DFF824944FF000063746C00734
:1022D0000ED0D9F8001021F40001C9F80010D9F887
:1022E0000010626B1143C9F80010606B00B9012641
:1022F000FE4D2068843500030ED5E16B286820F47C
:10230000401008432860E06BB0F5801F01D010B189
:1023100002E0012600E0012720684FF4800BC00294
:102320000CD5216C286820F4400008432860206CFC
:10233000584501D1012601E000B901272068C101FB
:1023400000D50126800666D5E8483830016841F09E
:10235000805101600068DFF898A300F08050009081
:10236000DAF8001041F48071CAF80010FFF79EFE01
:10237000804605E0FFF79AFEA0EB080064287DD8B0
:10238000DAF80000C005F5D5DFF8608308F16808C9
:10239000D8F8000010F440702AD0218E01F440716A
:1023A000814225D0D8F80010D8F8002021F44071DF
:1023B00042F48032C8F80020D8F8002022F480329D
:1023C000C8F80020C8F80010D8F80000C0070FD0E7
:1023D000FFF76CFE824607E0FFF768FEA0EB0A01FC
:1023E00041F288308142CAD8D8F800008007F3D57E
:1023F000206BC0F3012103297ED0D9F8001021F40D
:10240000F811C9F80010228ED8F80010C2F30B02A0
:102410001143C8F800102078C00607D5286820F0BE
:10242000807028602868A16B084328602188AF4825
:102430008830490405D5626E016821F440311143AA
:1024400001602188090405D5A26E016821F44021AC
:10245000114301602168C90305D5E26E016821F4CA
:102460004011114301602168890305D5226F01687D
:1024700021F4400111430160217800E016E1490692
:1024800005D5626C016821F00301114301602178D8
:10249000090605D5A26C016821F00C011143016009
:1024A0002188C90505D5E26C016821F0300111438E
:1024B00001602188890505D5226D016821F0C001E0
:1024C000114301602188490505D5626D016821F439
:1024D0004071114301602188090505D5A26D01688D
:1024E00021F44061114301602188C90407D5E26DE0
:1024F000016821F4405100E04AE011430160218865
:10250000890405D5226E016821F440411143016020
:102510002168490205D5A26F016821F0806111434D
:10252000016021684FF0006A890209D5E26F0168F5
:1025300021F0006111430160E16F514500D1012795
:1025400021680A0700D50127490305D5626F016894
:1025500021F04071114301602168090206D5D4F8C9
:102560008020016821F0805111430160DFF88491DF
:10257000012E02D0206880017ED5D9F800004E4699
:1025800020F08060C9F80000FFF790FD80460FE062
:10259000594AD9F80030104023F4F8120243C9F820
:1025A000002030E7FFF782FDA0EB080064287DD80B
:1025B00030680001F6D421784C487C30C90712D02D
:1025C000616B81B9237A62680168D0F800C092011A
:1025D000C1F3014142EA0142CCF3036142EA0161E5
:1025E00041EA0371016021680A0303D5E26BB2F589
:1025F000801F04D0C9021AD5216C594517D16368D0
:10260000016894F80CC002689B01C1F3014143EAE0
:102610000141C2F3027241EA0C6141EA02710160B8
:102620002968626A21F01F01521E11432960216846
:10263000C90110D5238A62680168D0F800C09201F0
:10264000C1F3036142EA034242EA0162CCF3027140
:1026500042EA01710160216889010CD56168228A12
:10266000237B94F808C0890141EA024141EA0361F1
:1026700041EA0C71016000E011E03168B04641F0C0
:1026800080613160FFF712FD064604E0FFF70EFDA2
:10269000801B64280AD8D8F800000001F6D56FB373
:1026A000D9F800004E4620F0805000E07BE0C9F8E9
:1026B0000000FFF7FBFC074605E000BFFFF7F6FC54
:1026C000C01B64286FD83068C0438000F6D5074827
:1026D000216880300A0301D5E26B1AB1C90225D501
:1026E000216C19BB63690168277E08E00838024045
:1026F0000070004000380240FFFCFF0F5AE0026803
:10270000C1F301419B0143EA0143C2F3027143EA71
:10271000076242EA0171016029686FF0FF03A26A53
:1027200021F4F85103EB0222114329602168890248
:1027300012D5E16F51450FD1238C6269016807689A
:102740009201C1F3036142EA034242EA0162C7F324
:10275000027142EA017101602178090716D56169A9
:102760000268D0F800C08B01277FC2F30362CCF36C
:10277000014143EA014141EA026141EA0771016016
:102780002868E16A20F4403008432860306840F04F
:1027900080503060FFF78AFC044607E0FFF786FCB4
:1027A000001B642802D90320BDE8F88F3068C043BD
:1027B0008000F3D40020F7E72DE9F04705000F462D
:1027C00063D0444E306800F00F00B84209D2306840
:1027D00020F00F0038433060306800F00F00B8423E
:1027E00053D128683C4C810712D5400703D5206897
:1027F00040F4E05020602878000703D5206840F4BA
:1028000060402060A968206820F0F0000843206044
:102810002878C0072AD0304968680839012810D0C4
:102820000968022810D0890700292EDA216821F0D2
:10283000030101432160FFF739FC804641F28839EA
:102840000DE009688903EFE78901EDE7FFF72EFC4A
:10285000A0EB0801494502D90320BDE8F08768686C
:10286000216801F00C01B1EB800FEFD1306800F06E
:102870000F00B8420BD9306820F00F0038433060A9
:10288000306800F00F00B84201D00120E5E7287859
:10289000400705D5E968206820F4E050084320602F
:1028A0002878000706D52869216821F4604141EAAB
:1028B000C000206000F038F82168084AC1F3031115
:1028C000515CC8400649086006480068FFF708FCEC
:1028D0000020C2E7003C02400838024016370008DA
:1028E0000C00002004000020044905480968006825
:1028F000044AC1F38221515CC84070470838024045
:102900000C000020263700080449054809680068C3
:10291000044AC1F34231515CC84070470838024054
:102920000C00002026370008154910B51548096825
:1029300011F00C0213D01449042A0FD0082A0ED12A
:102940000F4C241F2268236802F03F025B0207D568
:102950002068C0F38810A0FB010106E0084610BD06
:102960002168C1F38811A1FB00010023FDF7F2FCEF
:102970002168C1F30141491C4900B0FBF1F010BDD1
:10298000083802400024F40040787D012DE9F84F1A
:1029900004004FF000076ED02078DFF868A3AAF19A
:1029A0000408C007A8F104054CD0DAF8001050461E
:1029B000C1F38101012908D00068C0F38100022819
:1029C0000AD1D8F80000400206D52868800339D51E
:1029D00060680028DFD035E06068B0F5803F0BD03C
:1029E00010B1B0F5A02F11D0286820F480302860F5
:1029F000286820F4802002E0286840F480302860B5
:102A0000606890B1FFF752FB06460AE0286840F480
:102A100080202860F0E700BFFFF748FB801B642898
:102A200072D828688003F7D50CE0FFF73FFB064615
:102A300005E000BFFFF73AFB801B6428F0D8286848
:102A40008003F7D42078800742D5DAF8001050468A
:102A500011F00C0F08D00068C0F3810002280BD1E0
:102A6000D8F80000400207D42868800718D5E0682D
:102A7000012800D114E041E1E0680028286817D05F
:102A800040F001002860FFF711FB064605E000BF9B
:102A9000FFF70CFB801B0228C2D828688007F7D5F7
:102AA0002069296821F0F80141EAC00028600FE0A0
:102AB00020F001002860FFF7F9FA064605E000BFA4
:102AC000FFF7F4FA801B02281ED828688007F7D485
:102AD0002078000729D58B4861696C300029814630
:102AE000016812D041F001010160FFF7DFFA0646EC
:102AF00005E000BFFFF7DAFA801B022804D8D9F8F6
:102B000000008007F6D510E089E021F001010160A6
:102B1000FFF7CCFA064604E0FFF7C8FA801B02284C
:102B20007DD8D9F800008007F6D4207840076BD50F
:102B3000DFF8D09109F13809D9F80000C0000BD4B2
:102B4000D9F8001041F08051C9F80010D9F8000000
:102B5000012700F0805000906B480168C90512D42D
:102B60000168834641F480710160FFF79FFA0646D1
:102B700005E000BFFFF79AFA801B64284FD8DBF806
:102B80000000C005F6D55F4EA068683601280AD05F
:102B900008B1052811D0306820F00100306030689D
:102BA00020F0040002E0306840F001003060A068CE
:102BB000A0B1FFF77BFA83460CE0306840F00400D8
:102BC0003060F0E7FFF772FAA0EB0B0141F28830BA
:102BD000814266D830688007F4D50EE0FFF766FAC8
:102BE000834607E0FFF762FAA0EB0B0141F2883061
:102BF000814256D830688007F4D42FB1D9F800103C
:102C000021F08051C9F80010A069C8B3DAF80010AB
:102C1000C1F3810102294BD00228286800E040E07E
:102C200020F08070286003D0FFF740FA04463BE0B4
:102C3000FFF73CFA064604E0FFF738FA801B02284B
:102C40002FD828688001F7D4D4E90962D4E90701B4
:102C50002E4B570894F82C20084303EB074343EA14
:102C60008611084340EA026040F00050C8F80000B6
:102C7000286840F080702860FFF718FA044606E0E4
:102C80003EE000BFFFF712FA001B022809D82868AF
:102C90008001F7D534E000BFFFF708FA001B0228D7
:102CA00002D90320BDE8F88F28688001F4D427E01A
:102CB0000128D8F8000021D0E16900F480028A429E
:102CC0001CD1216A00F03F028A4217D1626A47F69E
:102CD000C0710140B1EB821F10D1A16A4FF0FF32E9
:102CE00000F4403302EB5101B3EB014F06D194F8ED
:102CF0002C1000F07060B0EB016F01D00120D1E723
:102D00000020CFE708380240007000400000FFFFBD
:102D1000401EB0F1807F10B501D3012010BD4FF0EF
:102D2000E02460610F21601700F0F0FB0020A0613B
:102D30000721216110BD10B5040002D0A06F10B1B1
:102D400007E0012010BD002084F87400204600F048
:102D500025F82420A0672068016821F001010160A6
:102D6000204600F03DFA0128ECD0606A10B1204600
:102D700000F0B2F92068416821F490414160206878
:102D8000816821F02A0181602068016841F0010119
:102D900001602046BDE8104000F002BA2DE9F0477E
:102DA000A8B00646142121A8FDF78DFB84216846B2
:102DB000FDF789FB294D02272A494FF003083068A7
:102DC000103D264C0026DFF898A088424FF00709F6
:102DD00019D18020129600906846FFF76FFA08B16B
:102DE000FEF7BDFF206840F400302060206800F44A
:102DF00000302690286840F008002860286860228B
:102E000000F008001CE01849884223D18015139671
:102E100000906846FFF752FA08B1FEF7A0FF20685D
:102E200040F480202060206800F4802026902868EC
:102E300040F00800286028684FF4407200F0080055
:102E400021A9CDE92590CDE92127CDE92368504678
:102E5000FEF7FEFF28B0BDE8F087000040380240D2
:102E6000000C024000440040004800402DE9F843B7
:102E70000446806F1F4616460D46202850D1CDB11E
:102E8000C6B194F8740001284AD0012084F8740077
:102E900021224FF00008C4F88080A267FFF706F9EE
:102EA0008146A068A4F85060A4F85260B0F5805F35
:102EB00003D004E00120BDE8F883206928B12E4644
:102EC0005FF0000584F8748010E00026FAE78021A6
:102ED000204600F09DFAB8B9C6B116F8010B21687A
:102EE0008862B4F85200401EA4F85200B4F85200B0
:102EF0004B464FF0000200970028E8D14FF0400108
:102F0000204600F085FA38B10320D4E735F8020BEB
:102F10002168C0F30800E3E72020A0670020CAE78B
:102F20000220C8E7FEE7000030B587B014216846EC
:102F3000FDF7C9FA1A48016841F00401016001680F
:102F400001F004010591016841F00201016001688E
:102F500001F002010591016841F00801016000687B
:102F60000122104D114600F0080005902846FFF799
:102F700098F8002469464FF400500294CDE900040B
:102F80000948FEF765FF0121009103200390CDE978
:102F9000011469462846FEF75BFF07B030BD00000C
:102FA0003038024000040240000802400C48002172
:102FB00010B50A4C0C224FF4E1330460C0E9013132
:102FC000C160C0E904128161C16101624162FFF721
:102FD000B2FE002801D072B6FEE710BD00440040EA
:102FE000340000200C48002110B50A4C0C224FF48C
:102FF000E1330460C0E90131C160C0E904128161BC
:10300000C16101624162FFF796FE002801D072B6ED
:10301000FEE710BD00480040B8000020FEE7FEE7D4
:1030200070477047FFF748B830B593B03021684615
:10303000FDF749FA14210CA8FDF745FA204801686C
:1030400041F080510160006800F0805011901D48EF
:10305000016841F440410160006800250DF1200C39
:103060000224009400F4404011900822D823CDE9B6
:10307000064510218CE81C0001200B94CDE90301CA
:103080006846FFF783FC08B172B6FEE7FFF7E0F889
:1030900008B172B6FEE74FF480524FF4A0510F20F2
:1030A000CDE90F120CAA072182E831000CA8FFF726
:1030B00083FB002801D072B6FEE713B030BD0000DC
:1030C00040380240007000400248016841F470013D
:1030D0000160704788ED00E090F82410C90706D021
:1030E0000168836A4A6822F400321A434A6090F801
:1030F0002410890706D50168C36A4A6822F4803221
:103100001A434A6090F82410490706D50168036BFA
:103110004A6822F480221A434A6090F82410090772
:1031200006D50168436B4A6822F400421A434A609C
:1031300090F82410C90606D50168836B8A6822F4CA
:1031400080521A438A6090F82410890606D50168D7
:10315000C36B8A6822F400521A438A6090F82410E4
:10316000490611D50168036C4A6822F480121A439B
:103170004A60016CB1F5801F06D10168436C4A6852
:1031800022F4C0021A434A6090F82410090606D5BA
:103190000168826C486820F4002010434860704742
:1031A00038B500250446C0F88050FEF77FFF03467F
:1031B0002068006800070BD56FF07E400090002269
:1031C00020464FF4001100F023F908B1032038BD68
:1031D0002020A067E0672566002084F8745038BD81
:1031E0002DE9F04104460368C2698168D4E90450BE
:1031F000DFF8F0C17C4E29431F68002510437B4A4D
:10320000014307EA0C070F431F604FF40040216899
:10321000E7684B6823F440533B434B602768A3693E
:10322000216AD7F808C019432CF430630B43BB6004
:103230002168B1420AD1116811F0030152D001296D
:103240007CD0022971D003296ED184E0684B994269
:103250000AD1116811F00C0167D0042965D0082942
:1032600075D00C2960D176E0624B99420AD1116881
:1032700011F0300159D010296BD0202967D03029A6
:1032800052D168E05C4B99420AD1116811F0C0013B
:103290004BD040295DD0802959D0C02944D15AE073
:1032A000564B99420DD1116811F440713DD0B1F5E2
:1032B000807F4ED0B1F5007F49D0B1F5407F33D14A
:1032C00049E04F4B99420FD1116811F4406109D088
:1032D000B1F5806F3DD0B1F5006F38D0B1F5406FDA
:1032E00022D138E0012120E0464B99420DD11168EE
:1032F00011F4405119D0B1F5805F2AD0B1F5005FCB
:1033000025D0B1F5405F0FD125E03F4B99420BD15D
:10331000116811F4404108D0B1F5804F19D08142B5
:1033200015D0B1F5404F16D01021E369374A4FF65A
:10333000EF7683422ED1092949D201E009E006E067
:10334000DFE801F00B0E114513454545160002213B
:10335000EBE70421E9E70821E7E7FFF7C5FA06E014
:10336000FFF7D2FA03E0104602E0FFF7DDFA78B388
:103370006168400000EB5100B0FBF1F0A0F11001DA
:10338000B14224D84FF6F0732168C0F342021840CE
:10339000104320E009291AD2DFE801F005080B19D3
:1033A0000D1919191000FFF79FFA06E0FFF7ACFAA4
:1033B00003E0104602E0FFF7B7FA48B1616800EB9E
:1033C0005100B0FBF1F0A0F11001B14201D901258B
:1033D00002E0216880B2C86000206066A0662846CE
:1033E000BDE8F081F369FFEF001001409038024022
:1033F0000044004000480040004C004000500040A5
:103400000014014000780040007C00400024F400DB
:103410002DE9F0479A4617460E460446089D4FF0A0
:1034200000094FF020084CE0681C4AD0FEF73EFE31
:10343000A0EB0A00A8422AD84DB3206801684907CA
:103440003FD5C069C04300053BD421684FF40060FC
:103450000862216851E8000F20F4D07041E80002B2
:10346000002AF6D12068083050E8001F21F0010141
:1034700040E80012002AF5D1C4F8788084F87490EE
:10348000C4F87C80C4F880800320BDE8F087206801
:1034900050E8001F21F4D07140E80012002AF6D154
:1034A0002068083050E8001F21F0010140E80012B8
:1034B000002AF5D1C4F8788084F87490C4F87C8030
:1034C000E2E72068C06936EA000004D00020B84274
:1034D000AAD00020D9E70120F9E7FEE703B401985C
:1034E0004100009850EAC12018BF04204A0D18BFBF
:1034F00040F0010040F2FF72B2EB515F08BF40F0B4
:103500000200012808BF052002B070470907002803
:103510004FEA116104DB00F1E02080F800147047ED
:1035200000F00F0000F1E02080F8141D70473038E3
:103530000A2801D201207047002070470C484FF440
:10354000005110B5FEF7A8FD01280BD00948002254
:103550000121FEF7A6FD08A000F088F8BDE81040A4
:1035600000F020B8BDE8104009A000F07FB80000CE
:1035700000080240000402404A554D50494E472081
:10358000544F2041505020434F44450D0A00000045
:10359000424F4F544C4F41444552204143544956A9
:1035A000450D0A00022107A010B500F05FF80B4995
:1035B000086880F308880A4801604868BDE8104040
:1035C000004700004A756D70696E6720746F207542
:1035D000736572206170700D0A0000000000010820
:1035E00008ED00E01FB500240094019402940394B8
:1035F000FEF7C4FD01258DF80C501F208DF8080042
:1036000087218DF809108DF80D5068468DF800500F
:103610008DF80A408DF80E408DF8014001948DF828
:103620000B408DF80F40FEF77BFD0420FEF7B4FD44
:10363000FEF74AFDFFF7F8FCFFF776FCFFF7D2FC38
:10364000FFF7B4FC08480749016004714471446104
:1036500005628461FEF7ACFB08B172B6FEE7FFF7C6
:103660006DFFFEE700300240100000200FB40DA1F6
:1036700010B594B017AC1698FCF719FF16992246AE
:103680006846FCF7DFFE6846FCF7F2FE82B20648A9
:103690004FF0FF336946FFF7E9FB14B010BC5DF84B
:1036A00014FB00000D0A0000B800002010B500292E
:1036B0000AD00878002807D005487844FDF74AFF6B
:1036C000002801D0002010BD0248784410BD000041
:1036D000920100008A01000010B500290AD0087884
:1036E000002807D005487844FDF734FF002801D0B2
:1036F000002010BD0248784410BD00008201000087
:103700007A0100004FF04070E1EE100A7047FDF7BB
:103710002EBBFDF763BC00000000000000000102AA
:10372000030406070809000000000102030400006A
:1037300000000000000000003031323334353637ED
:1037400038394142434445464030580030313233E5
:1037500034353637383961626364656640307800E5
:10376000040000080000000000000002000100004A
:10377000103031323334353637383961626364653D
:10378000667870003031323334353637383941425B
:10379000434445465850000002400000000000A08D
:1037A0000000000005400000000000C8000000000C
:1037B0000C4000000000409C000000001940000088
:1037C0000020BCBE0000000034400000BFC91B8EBA
:1037D00000000004B5400000504BCFD06607E2CF98
:1037E000010000006C4100003E8251AADFEEA734C8
:1037F00001000000D9420000DCB5A0E23A301F977A
:10380000FFFFFFFFB4450000FD25A0C8E9A3C14F9D
:10381000FFFFFFFFFF3F00000000008000000000EE
:10382000FF3F000000000080000000007839000821
:103830000000002010000000040200088839000881
:103840001000002090070000200200081C0000006B
:1038500043000000F8FFFFFF0C0000000E00000016
:103860000F0000002E0000001001000043000000C7
:10387000F8FFFFFF00404040404040404040414191
:103880004141414040404040404040404040404035
:1038900040404040400502020202020202020202CF
:1038A00002020202022020202020202020202002CC
:1038B000020202020202909090909090101010105C
:1038C00010101010101010101010101010101010F8
:1038D000020202020202888888888888080808088C
:1038E0000808080808080808080808080808080858
:1038F0000202020240000000000000000000000080
:1039000000000000000000000000000000000000B7
:1039100000000000000000000000000000000000A7
:103920000000000000000000000000000000000097
:103930000000000000000000000000000000000087
:103940000000000000000000000000000000000077
:103950000000000000000000000000000000000067
:103960000000000000000000000000000000000057
:103970000000000000000000010000001000000036
:08398000000000000024F40027
:04000005080001C925
:00000001FF
